:100000000C94E0000C9408010C9408010C94340545
:100010000C9434050C9434050C9408010C940801DC
:100020000C9408010C9408010C9408010C9408012C
:100030000C9408010C9408010C9408010C9408011C
:100040000C94600B0C9408010C9401050C94DB04D7
:100050000C9408010C9408010C9408010C940801FC
:100060000C9408010C94080100407A10F35A00A087
:10007000724E18090010A5D4E80000E87648170071
:1000800000E40B54020000CA9A3B000000E1F505B1
:10009000000080969800000040420F000000A086FB
:1000A00001000000102700000000E803000000002D
:1000B0006400000000000A000000000001000000D1
:1000C00000002C76D888DC674F0823DFC1DFAE59EB
:1000D000E1B1B796E5E3E453C63AE651997696E87E
:1000E000E6C28426EB898C9B62ED407C6FFCEFBC02
:1000F0009C9F40F2BAA56FA5F490055A2AF75C932D
:100100006B6CF9676DC11BFCE0E40D47FEF520E662
:10011000B500D0ED902E0300943577050080841E45
:10012000080000204E0A000000C80C333333330FA0
:10013000986E12831141EF8D2114893BE65516CF3D
:10014000FEE6DB18D1844B381BF77C1D901DA4BB49
:10015000E424203284725E228100C9F124ECA1E5FE
:100160003D2700000000240027002A0000000008AE
:10017000000201000003040700000000000000006E
:1001800000000000230026002900000000002500D8
:1001900028002B00040404040404040402020202E4
:1001A000020203030303030301020408102040803A
:1001B0000102040810200102040810201E0C0A0C81
:1001C00011241FBECFEFD8E0DEBFCDBF23E0A2E3F6
:1001D000B2E001C01D92A833B207E1F712E0A0E03F
:1001E000B1E0E8EFFCE202C005900D92A233B10746
:1001F000D9F710E0CFEDD0E004C02197FE010E94B6
:100200003C14CE3DD107C9F70E94E10C0C946F1647
:100210000C9400000895CF92DF92EF92FF920F931B
:100220001F93CF93DF936C017A018B01C0E0D0E084
:10023000CE15DF0581F0D8016D918D01D601ED91CC
:10024000FC910190F081E02DC6010995892B11F0F8
:100250002196EECF7E01C701DF91CF911F910F91C3
:10026000FF90EF90DF90CF900895FC01538D448D67
:10027000252F30E0842F90E0821B930B541710F051
:10028000CF96089501970895FC01918D828D98175E
:1002900061F0828DDF01A80FB11D5D968C91928D6A
:1002A0009F5F9F73928F90E008958FEF9FEF089567
:1002B000FC01918D828D981731F0828DE80FF11D30
:1002C000858D90E008958FEF9FEF0895FC01918D4B
:1002D000228D892F90E0805C9F4F821B91098F7344
:1002E000992708958AE792E00E94660121E0892B10
:1002F00009F420E0822F0895FC01848DDF01A80F0E
:10030000B11DA35ABF4F2C91848D90E001968F733D
:100310009927848FA689B7892C93A089B1898C915C
:10032000837080648C93938D848D981306C00288AB
:10033000F389E02D80818F7D80830895EF92FF9275
:100340000F931F93CF93DF93EC0181E0888F9B8DF8
:100350008C8D981305C0E889F989808185FD26C0B8
:10036000F62E0B8D10E00F5F1F4F0F731127E02E3D
:100370008C8DE8120CC00FB607FCFACFE889F9891A
:10038000808185FFF5CFCE010E947C01F1CF8B8D5E
:10039000FE01E80FF11DE35AFF4FF0829FB7F8947A
:1003A0000B8FEA89FB89808180620AC09FB7F8942D
:1003B000EE89FF896083E889F98980818370806490
:1003C00080839FBF81E090E0DF91CF911F910F91DB
:1003D000FF90EF900895CF93DF93EC01888D8823F1
:1003E000C9F0EA89FB89808185FD05C0A889B989A2
:1003F0008C9186FD0FC00FB607FCF5CF808185FF7D
:10040000F2CFA889B9898C9185FFEDCFCE010E94EA
:100410007C01E7CFDF91CF91089580E090E0892BB8
:1004200029F00E94720181110C940000089520911E
:100430007402309175022817390771F49091730294
:1004400080917202981741F0E0917302F0E0EE5C47
:10045000FD4F808190E008958FEF9FEF08951F93E7
:10046000CF93DF93DC015C968D919C915D97009713
:1004700039F421E030E013963C932E9312973BC061
:100480005196ED91FC91529750962C915097322FA6
:1004900030951FB75E964C915E97742F727041FD38
:1004A0006095F8944081772311F0422B01C04323DB
:1004B0004083EC012197F1F748E0508160FF02C0D2
:1004C000522B01C053235083EC012197F1F766951D
:1004D000415099F78081772319F08323808302C0EC
:1004E000282B20831FBF5C968D919C915D9701976F
:1004F000F1F781E090E0DF91CF911F910895209175
:100500007402309175022817390771F480917202D4
:100510002091730290E0805C9F4F821B910960E400
:1005200070E00E941414089580E090E008952091F6
:1005300074023091750228173907B9F4909173024B
:1005400080917202981789F0E0917302F0E0EE5CFE
:10055000FD4F80812091730230E02F5F3F4F2F735A
:1005600033272093730290E008958FEF9FEF089553
:1005700080E090E008950895CF93DF93DC01169614
:10058000ED91FC911797138E128E118E108E178A93
:10059000168A85E690E0958F848F9485963108F0D1
:1005A0004EC021E230E0378B268B23E630E0318FDE
:1005B000208F22E430E0338F228F30916800983012
:1005C00058F021E09E3008F420E091E0892F01C02E
:1005D000880F2A95EAF701C084E0832B8093680096
:1005E0009485983038F09E3040F0963148F020E005
:1005F00030E008C02DE630E005C02BE630E002C058
:100600002CE630E0348B238B983030F481E001C04D
:10061000880F9A95EAF70EC0292F30E09E3018F423
:100620002850310902C02E50310981E001C0880FE5
:100630002A95EAF7858B848D958D0197F1F7828D48
:10064000938D892B21F1A0917402B0917502EA1764
:10065000FB07E9F0109751F05396CD91DC91549738
:10066000988155968C91809589238883868D8E7F7D
:10067000868F1092720210927302F0937502E093CB
:100680007402A389B4899C918589892B8C93DF910D
:10069000CF9108950F931F93CF93DF93EC0188813F
:1006A0009981009729F02A813B812617370788F422
:1006B0008B016F5F7F4F0E946315009761F09983F4
:1006C00088831B830A832C813D81232B11F4FC0139
:1006D000108281E001C080E0DF91CF911F910F91E6
:1006E0000895EF92FF920F931F93CF93DF936115BD
:1006F000710511F480E01CC041155105C1F07B016A
:10070000EC018C819D818A01080F191FB801CE016F
:100710000E944A03882371F3288139818C819D814D
:10072000B701820F931F0E9440161D830C8381E046
:10073000DF91CF911F910F91FF90EF900895CF938C
:10074000DF93EC0188819981009711F00E94DA14FF
:10075000198218821D821C821B821A82DF91CF911E
:100760000895EF92FF920F931F93CF93DF93EC01C5
:100770007B018A01BA010E944A03811104C0CE01A3
:100780000E949F0307C01D830C83B7018881998154
:100790000E944016CE01DF91CF911F910F91FF90E3
:1007A000EF900895FB0144815581FC01248135813E
:1007B0002417350778F080819181009759F0FB016B
:1007C000608171816115710529F00E94471621E051
:1007D000892B09F020E0822F0895CF93DF93EC015D
:1007E0006115710561F0FB0101900020E9F7319777
:1007F000AF01461B570B0E947103811103C0CE014C
:100800000E949F03CE01DF91CF910895CF93DF9394
:10081000EC01FB0144815581608171810E9471036B
:10082000811103C0CE010E949F03CE01DF91CF91C1
:100830000895CF93DF93EC016115710559F0FB0129
:1008400001900020E9F73197AF01461B570B0E943A
:10085000B10302C00E949F03CE01DF91CF910895A2
:10086000FC01808191810C94DA14FB01DC0111966A
:100870001C921E9213961C921E92129715961C9211
:100880001E9214978617970749F060817181611550
:10089000710521F0448155810C94B1030895FC0148
:1008A00011821082138212821582148261157105E1
:1008B00051F0FB0101900020E9F73197AF01461B91
:1008C000570B0C94B1030895BF92CF92DF92EF9231
:1008D000FF920F931F93CF93DF937C016B018A01EB
:1008E000E9012417350720F4812F8901C42FD82F5F
:1008F0006CE371E0C7010E944F04D60114968D91FC
:100900009C91159708171907C8F48C179D0708F4D0
:10091000EC01D601ED91FC911197EC0FFD1FB08019
:1009200010826D917C91600F711FC7010E941904A4
:10093000D601ED91FC91EC0FFD1FB082C701DF9154
:10094000CF911F910F91FF90EF90DF90CF90BF90CC
:1009500008956115710579F0FB0101900020E9F718
:100960003197AF01461B570BDC01ED91FC910280E2
:10097000F381E02D099480E090E008950F931F9398
:10098000CF93DF93EC01FB0144815581608171813C
:10099000E881F9810280F381E02D09958C016AE3F9
:1009A00071E0CE010E94A904800F911FDF91CF91C9
:1009B0001F910F9108951F920F920FB60F9211245D
:1009C0002F933F934F935F936F937F938F939F9357
:1009D000AF93BF93EF93FF938AE792E00E947C016D
:1009E000FF91EF91BF91AF919F918F917F916F9107
:1009F0005F914F913F912F910F900FBE0F901F90DD
:100A000018951F920F920FB60F9211242F938F9368
:100A10009F93EF93FF93E0918A02F0918B02808184
:100A2000E0919002F091910282FD12C0908180913C
:100A300093028F5F8F7320919402821751F0E0919F
:100A40009302F0E0E658FD4F958F8093930201C02A
:100A50008081FF91EF919F918F912F910F900FBE09
:100A60000F901F90189508951F920F920FB60F9236
:100A700011242F933F934F935F936F937F938F93A3
:100A80009F93AF93BF93EF93FF93E0917402F09124
:100A90007502309709F451C0968DA685B785858576
:100AA00091FF04C09C91892329F447C09C9189231C
:100AB00009F043C0A389B4899C91858980958923D5
:100AC0008C93868997890197F1F7608D718DA68542
:100AD000B785558538E020E0CB010197F1F7822FEB
:100AE00090E095958795282F4C91452309F0206833
:100AF000315091F7868D81FD20958091720290E0B2
:100B000001968F73992730917302381749F0A0919D
:100B10007202B0E0AE5CBD4F2C938093720203C0B2
:100B2000868D8160868F828D938D0197F1F7A389E1
:100B3000B4899C918589892B8C93FF91EF91BF910A
:100B4000AF919F918F917F916F915F914F913F9165
:100B50002F910F900FBE0F901F901895CF92DF929C
:100B6000EF92FF920F931F93CF93DF93DC0128E066
:100B700030E080E041E067E070E093E2C92ED12CE4
:100B80000FEC10E05C911196ED91FC911297F894A6
:100B90009181952B9183F280952F9095F922F28285
:100BA000EB012197F1F7F1809F219183E6012197D5
:100BB000F1F790817894F8013197F1F7952309F0D6
:100BC000842B440F21503109E9F6DF91CF911F9119
:100BD0000F91FF90EF90DF90CF900895DC012C9162
:100BE0001196ED91FC911297F8948181922F909536
:100BF0008923818378948DE743E050E0815021F18F
:100C0000DA011197F1F730813223C1F3F894828130
:100C1000892382838181822B81837894ABE7B7E03B
:100C20001197F1F7F89481819823918383E191E002
:100C30000197F1F78081282381E009F080E0789422
:100C4000E3E6F6E03197F1F708958F929F92AF9225
:100C5000BF92EF92FF920F931F93CF93DF93CDB785
:100C6000DEB728970FB6F894DEBF0FBECDBF8C015C
:100C70007B016CE371E00E944F048FB7F894809081
:100C8000760290907702A0907802B09079028FBFA0
:100C900080E1880E87E2981EA11CB11CD701169630
:100CA0008D919C911797DC01ED91FC910084F18569
:100CB000E02D0995892B81F42FB7F8948091760265
:100CC00090917702A0917802B09179022FBF881598
:100CD0009905AA05BB0510F3D70116968D919C9135
:100CE0001797DC01ED91FC910084F185E02D0995C9
:100CF000892B21F1F701E680F7806CE371E0CE01EA
:100D000001960E944F04C7010E947D0797FD0CC009
:100D10008F83188641E050E0BE01695F7F4FCE01AE
:100D200001960E947103EFCFBE016F5F7F4FC80134
:100D30000E947107CE0101960E943004C8012896D6
:100D40000FB6F894DEBF0FBECDBFDF91CF911F91DC
:100D50000F91FF90EF90BF90AF909F908F9008956C
:100D6000EF92FF920F931F93CF93DF93CDB7DEB730
:100D700068970FB6F894DEBF0FBECDBF8C01DC01C3
:100D800016968D919C911797DC01ED91FC91008452
:100D9000F185E02D0995892B09F45DC0B801CE01DC
:100DA00043960E942506CE0143960E94AA0B65E455
:100DB00071E0CE0101960E944F04BE016F5F7F4F2C
:100DC000CE0143960E94D203F82ECE0101960E94D6
:100DD0003004FF20E1F16AE771E0CE0101960E9444
:100DE0004F04BE016F5F7F4FCE0143960E94D6072E
:100DF0007C01CE0101960E9430042F89388DA70115
:100E00004F5F5F4FBE016D5E7F4FCE010D960E941A
:100E10006404CE010D960E94AA0B6CE471E0CE0131
:100E200007960E944F04AE01495F5F4FB801CE01A3
:100E300001960E94B209CE0101960E943004CE01B3
:100E400007960E943004CE010D960E943004CE0118
:100E500043960E94300468960FB6F894DEBF0FBE2A
:100E6000CDBFDF91CF911F910F91FF90EF9008952B
:100E70000F931F93CF93DF938C01EB01FC018081D3
:100E800091810097B1F0688179816115710579F0E0
:100E9000428153812C813D814217530740F00E94CB
:100EA00040168C819D81F8019583848313C00E9434
:100EB000DA1488819981F801918380838A819B81EA
:100EC000938382838C819D81958384831982188288
:100ED0001B821A821D821C82DF91CF911F910F917C
:100EE0000895CF93DF93EC018617970711F00E94C6
:100EF0003807CE01DF91CF910895CF93DF93EC01B6
:100F00002FB7F8948091760290917702A0917802A1
:100F1000B09179022FBF88879987AA87BB87E8811C
:100F2000F9810284F385E02DCE01099597FF1EC05B
:100F30002FB7F8948091760290917702A091780271
:100F4000B09179022FBF488559856A857B85841BBE
:100F5000950BA60BB70B4C815D816E817F81841749
:100F60009507A607B707D8F28FEF9FEFDF91CF91D4
:100F70000895CF93DF93FC012481358142175307F5
:100F800080F4FB01DC01CD91DC9160817181CE01A7
:100F9000840F951F0E945516009719F08C1B9D0B0E
:100FA00002C08FEF9FEFDF91CF910895AF92BF9274
:100FB000CF92DF92EF92FF920F931F93CF93DF9325
:100FC000FC0124813581FB01448155818901041B89
:100FD000150B4115510551F12115310539F1241732
:100FE000350720F10217130718F089010150110984
:100FF0007B01FC01A080B180C501DFEFCFEF65016F
:10100000C00ED11EC816D906A0F0F701608171810B
:101010000E945516009769F09C012A193B09021796
:10102000130710F0D22FC32F0196ECCF8FEF9FEF55
:1010300002C08D2F9C2FDF91CF911F910F91FF90B8
:10104000EF90DF90CF90BF90AF900895EF92FF9216
:101050000F931F93CF93DF938C01FC01E480F58005
:10106000C3E2D3E08C819D81E816F90621F5F801F1
:101070008081918168817981009719F061157105EE
:10108000B1F46115710551F0E114F104D9F0FB01DF
:10109000808190E09195819591090BC0009791F026
:1010A000E114F10479F0FC01808190E002C00E941B
:1010B0003716892B39F02696F3E0CF32DF0791F609
:1010C00080E001C081E0DF91CF911F910F91FF90EF
:1010D000EF900895AF92BF92CF92DF92EF92FF927E
:1010E0000F931F93CF93DF93DC0128E030E091E072
:1010F000AA24AA94B12C0FE010E043E2E42EF12CD4
:1011000057EDC52ED12C8C911196ED91FC91129733
:10111000482F4095562F592381F0F894528145234A
:1011200042834181482B4183E7012197F1F74281B6
:10113000842B82837894F6010FC0F8945281452362
:1011400042834181482B4183E5012197F1F7428198
:10115000842B82837894F8013197F1F7990F21500D
:10116000310989F6F8941196ED91FC9112979181CD
:101170008C918095892381831196ED91FC91129732
:1011800092818C918095892382837894DF91CF918D
:101190001F910F91FF90EF90DF90CF90BF90AF9095
:1011A0000895CF93DF93BC018AE792E00E94A904DF
:1011B000EC016AE371E08AE792E00E94A9048C0FD7
:1011C0009D1FDF91CF910895833081F028F4813005
:1011D00099F08230A1F008958730A9F08830B9F0F5
:1011E0008430D1F4809180008F7D03C08091800095
:1011F0008F7780938000089584B58F7702C084B57F
:101200008F7D84BD08958091B0008F7703C0809159
:10121000B0008F7D8093B00008951F93CF93DF932C
:10122000282F30E0F901E459FE4F8491F901E85587
:10123000FE4FD491F901EC56FE4FC491CC23C1F07E
:10124000162F81110E94E408EC2FF0E0EE0FFF1F33
:10125000E657FE4FA591B4919FB7F894111104C0C1
:101260008C91D095D82302C0EC91DE2BDC939FBFEC
:10127000DF91CF911F910895CF93DF9390E0FC0110
:10128000E855FE4F2491FC01EC56FE4F84918823D3
:1012900061F190E0880F991FFC01EE59FE4FC59156
:1012A000D491FC01E657FE4FA591B491611109C09C
:1012B0009FB7F8948881209582238883EC912E2310
:1012C0000BC0623061F49FB7F8948881322F30955B
:1012D00083238883EC912E2B2C939FBF06C08FB75E
:1012E000F894E8812E2B28838FBFDF91CF9108954A
:1012F0008F929F92AF92BF92CF92DF92EF92FF9226
:101300006B017C010E943B0B4B015C01C114D104B9
:10131000E104F104F1F00E943B0BDC01CB018819E0
:101320009909AA09BB09883E9340A105B10570F34C
:1013300021E0C21AD108E108F10888EE880E83E0A6
:10134000981EA11CB11CC114D104E104F10419F7C9
:10135000DDCFFF90EF90DF90CF90BF90AF909F9048
:101360008F900895CF92DF92EF92FF920F931F9389
:10137000CF93DF93CDB7DEB72C970FB6F894DEBFCF
:101380000FBECDBF8C016B017A016CE371E00E944E
:101390004F04B701F601868197810E94BE04B60111
:1013A000CE0101960E942506BE016F5F7F4FC801E6
:1013B0000E947107CE0101960E943004B701C80156
:1013C0000E94D203882349F1F701E480F58060E7A9
:1013D00071E0CE0107960E944F04A701BE01695F2C
:1013E0007F4FC8010E94B907F80124813581AC0103
:1013F0004E5F5F4FB801CE0101960E946404BE01AA
:101400006F5F7F4FC8010E947107CE0101960E9455
:101410003004CE0107960E943004C8012C960FB606
:10142000F894DEBF0FBECDBFDF91CF911F910F911A
:10143000FF90EF90DF90CF900895EF92FF920F937F
:101440001F93CF93DF93CDB7DEB762970FB6F894B3
:10145000DEBF0FBECDBF8C016CE371E0CE010D96F7
:101460000E944F046CE371E0C8010E944F046BE1DD
:1014700073E0CE0101960E942506BE016F5F7F4F8B
:10148000CE010D960E943807CE0101960E943004CD
:10149000CE010D960E94AA0B65E471E0CE01019683
:1014A0000E944F04BE016F5F7F4FCE010D960E94D8
:1014B000D203F82ECE0101960E943004FF2009F4D9
:1014C00042C06AE771E0CE0101960E944F04BE015E
:1014D0006F5F7F4FCE010D960E94D6077C01CE0133
:1014E00001960E94300429893A89A7014F5F5F4F16
:1014F000BE01635F7F4FCE0101960E946404BE016E
:101500006F5F7F4FC8010E947107CE0101960E9454
:101510003004C8010E94AA0B6CE471E0CE0107966A
:101520000E944F04AE01495F5F4F6BE173E0CE0153
:1015300001960E94B209CE0101960E943004CE01AC
:1015400007960E943004CE010D960E943004C80117
:1015500062960FB6F894DEBF0FBECDBFDF91CF917C
:101560001F910F91FF90EF900895EF92FF920F93CC
:101570001F93CF93DF93CDB7DEB768970FB6F8947C
:10158000DEBF0FBECDBF7C018B0162E771E0CE01F3
:101590000D960E944F04B701CE010D960E940604DD
:1015A0006AE771E00E94ED03BC01CE0107960E943C
:1015B0003504AE01495F5F4F6BE173E0CE010196E8
:1015C0000E94B209CE0101960E943004CE01079616
:1015D0000E943004CE010D960E9430041E861D86A6
:1015E000188A1F861A8A198A8AE189831A82BE019B
:1015F0006F5F7F4FCE010D960E941904B801CE0196
:1016000043960E9435046AE371E0CE0143960E943E
:10161000ED03BE01635F7F4F0E940604BC01CE0153
:1016200007960E943504AE01495F5F4F6BE173E09E
:10163000CE0101960E94B209CE0101960E943004AB
:10164000CE0107960E943004CE0143960E943004DA
:10165000CE010D960E94300468960FB6F894DEBF56
:101660000FBECDBFDF91CF911F910F91FF90EF90F3
:1016700008950E9429163FB7F89480913003909105
:101680003103A0913203B091330326B5A89B05C066
:101690002F3F19F00196A11DB11D3FBFBA2FA92FF1
:1016A000982F8827820F911DA11DB11DBC01CD016E
:1016B00042E0660F771F881F991F4A95D1F708955A
:1016C0001F920F920FB60F9211242F933F938F9377
:1016D0009F93AF93BF938091760290917702A091F0
:1016E0007802B091790230912F0323E0230F2D3738
:1016F00020F40196A11DB11D05C026E8230F029616
:10170000A11DB11D20932F03809376029093770241
:10171000A0937802B09379028091300390913103C5
:10172000A0913203B09133030196A11DB11D8093A6
:10173000300390933103A0933203B0933303BF91EE
:10174000AF919F918F913F912F910F900FBE0F906E
:101750001F901895AF92BF92CF92DF92EF92FF92B7
:101760000F931F93CF93DF93DC01CD90DC90119703
:10177000C114D10409F443C01496CD91DC9115979E
:101780002097E9F18C0176015701BFEFAB1ABB0A34
:10179000F7018081082E000C990B0E94D612892B2C
:1017A00011F07501F1CF2197CC0DDD1D8881082E38
:1017B000000C990B0E94D612892B29F0CE15DF055B
:1017C00010F02197F3CFAE014F5F5F4F4E195F09C5
:1017D000D80115965C934E931497CE14DF0420F431
:1017E000B701C6010E942E16D801ED91FC91119708
:1017F00014968D919C911597E80FF91F1082DF9137
:10180000CF911F910F91FF90EF90DF90CF90BF90FD
:10181000AF90089586E391E090931C0380931B039F
:101820006DE371E08AE792E00E94A90489E293E007
:101830000E94300483E293E00C943004CF92DF9254
:10184000EF92FF92CF93DF9310927D0210927C0271
:1018500098EEC92E93E0D92EE12CF12CC0927E0295
:10186000D0927F02E0928002F09281028AE091E0C1
:1018700090937B0280937A0285EC90E090938702AC
:101880008093860284EC90E0909389028093880292
:1018900080EC90E090938B0280938A0281EC90E040
:1018A00090938D0280938C0282EC90E090938F0253
:1018B00080938E0286EC90E0909391028093900248
:1018C0001092930210929402109295021092960236
:1018D00066E571E083E293E00E944F0463E671E005
:1018E00089E293E00E944F0486E391E090931C0309
:1018F00080931B038AE080931F038BE08093200377
:101900008FE190E00E944214EC011B821A82CC828B
:10191000DD82EE82FF828CE191E0998388831F8AC9
:101920001E8A198E188E1B8E1A8E1D8E1C8E6E8D21
:101930006E7F6D7F6E8F6695617081E068278BE0AA
:101940000E940D0961E08BE00E943C09E3EBF1E0AD
:10195000E491E88BEFE9F1E0E491F0E0EE0FFF1F96
:10196000E657FE4F859194919A8B898B60E08AE0CF
:101970000E943C098E8D81FD04C061E08AE00E94D6
:101980000D098AE08C87E2EBF1E0E491ED87EEE966
:10199000F1E0E491F0E0EE0FFF1FE058FE4F85917B
:1019A00094919F878E87D0932203C093210386E072
:1019B00080931703DF91CF91FF90EF90DF90CF904E
:1019C0000895CF93DF93CDB7DEB7EF970FB6F894B6
:1019D000DEBF0FBECDBF789484B5826084BD84B570
:1019E000816084BD85B5826085BD85B5816085BD1A
:1019F00080916E00816080936E00109281008091D2
:101A00008100826080938100809181008160809359
:101A10008100809180008160809380008091B1007E
:101A200084608093B1008091B00081608093B000A9
:101A300080917A00846080937A0080917A0082603D
:101A400080937A0080917A00816080937A008091FF
:101A50007A00806880937A001092C100E0918A0237
:101A6000F0918B0282E08083E0918602F091870200
:101A70001082E0918802F091890283E380831092C2
:101A80009202E0918E02F0918F0286E08083E091D5
:101A90008C02F0918D02808180618083E0918C02C4
:101AA000F0918D02808188608083E0918C02F091BA
:101AB0008D02808180688083E0918C02F0918D029C
:101AC00080818F7D80838EE090E00E9442148C01A3
:101AD000F090170360E08F2D0E943C098F2D90E05D
:101AE000FC01E855FE4FE491D801EC93FC01EC5663
:101AF000FE4FE491F0E0EE0FFF1FE058FE4F85919E
:101B00009491F801928381831386158614863B96FF
:101B1000C801039612928E179F07E1F710931A03DC
:101B2000009319038BE193E00E94BC0261E088E01E
:101B30000E943C098CE791E00E94D1086CE371E0BF
:101B4000CE0188960E944F0468E871E0CE010196AC
:101B50000E944F04AE014F5F5F4F6BE173E0CE0117
:101B600082960E94B209BE016E5D7F4FCE018896BB
:101B70000E943807CE0182960E943004CE01019661
:101B80000E94300465E971E0CE0101960E944F0485
:101B900040E050E0BE016F5F7F4FCE0188960E940B
:101BA000B9078C01CE0101960E94300417FF26C0B0
:101BB00068E871E0CE0101960E944F04AE014F5FCC
:101BC0005F4F6BE173E0CE0182960E94B209BE01C5
:101BD0006E5D7F4FCE0188960E943807CE018296B7
:101BE0000E943004CE0101960E943004BE01685D5F
:101BF0007F4F8AE792E00E94BE04C4CFCE01889650
:101C00000E94300488E991E00E94D10862EA71E004
:101C1000CE01C4960E944F0481EB91E00E94D1084E
:101C200003E213E066EC71E0CE0101960E944F04DE
:101C3000B801CE0101960E940604BC018AE792E039
:101C40000E94BE04CE0101960E943004BE016C5C6D
:101C50007F4FCE018E960E943504B801CE01889642
:101C60000E943504BE01625D7F4FCE0101960E9445
:101C70003504BE01685D7F4FCE0182960E94350417
:101C8000BE016F5F7F4FCE0182960E94B50ACE01E2
:101C900082960E943004CE0101960E94300468EBC7
:101CA0007BE080E090E00E947809CE0188960E9457
:101CB0003004CE018E960E9430040A5F1F4FF3E07D
:101CC0000F321F0709F0AECFCE01C4960E94300438
:101CD00095E7E92E91E0F92E21EBC22E21E0D22EDC
:101CE0003DE9A32E31E0B32E809121039091220390
:101CF000DC01ED91FC910084F185E02D0995892BA3
:101D000009F4B5C06CE371E0CE018E960E944F04D9
:101D10006CE371E0CE01CA960E944F046BE173E060
:101D2000CE0101960E942506BE016F5F7F4FCE0156
:101D30008E960E943807CE0101960E9430046AE117
:101D400072E0CE0101960E944F04BE01625D7F4F9A
:101D5000CE0101960E940604BC018AE792E00E942F
:101D6000BE04CE0101960E9430046DE272E0CE0105
:101D700001960E944F0440E050E0BE016F5F7F4F2C
:101D8000CE018E960E94B9078C01CE0101960E9469
:101D9000300417FD3DC067ED71E0CE0182960E94D0
:101DA0004F0440E050E0BE016E5D7F4FCE018E9645
:101DB0000E94B9078C0167ED71E0CE0101960E9487
:101DC0004F0440E050E0BE016F5F7F4FCE018E9622
:101DD0000E94B9079801245F3F4FAC01BE01625DCC
:101DE0007F4FCE0188960E946404BE01685D7F4FDC
:101DF000CE01CA960E947107CE0188960E943004D7
:101E0000CE0101960E943004CE0182960E943004D9
:101E1000CE018E960E943004CE01C4960E941D0A07
:101E2000BE016C5C7F4F8AE792E00E94BE04CE0147
:101E300001960E941D0ABE016F5F7F4F8AE792E004
:101E40000E94BE04CE0101960E94300488AD99AD77
:101E5000892B81F488AD99AD892B09F050C0CE0152
:101E6000C4960E943004CE01CA960E9430040E949B
:101E70000D023ACF62EE71E08CA99DA90E9437163F
:101E8000892BE9F5BE01665C7F4FCE0101960E9469
:101E90003504CE0101960E942608182FCE01019626
:101EA0000E9430041123B1F261E088E00E940D0924
:101EB00064EF71E080E090E00E94780960E088E0E3
:101EC0000E940D096AED71E0CE0182960E944F04D6
:101ED000BE01665C7F4FCE0101960E943504BE01B3
:101EE0006E5D7F4FCE0101960E94B50ACE0101962C
:101EF0000E943004CE0182960E943004ABCF6CEE7B
:101F000071E08CA99DA90E943716892B09F0A1C008
:101F1000BE01665C7F4FCE0101960E943504CE0162
:101F200001960E942608182FCE0101960E943004C7
:101F3000112309F489C08091190390911A030E941A
:101F4000EE056CEC8091190390911A030E946A08C7
:101F500064E48091190390911A030E946A0868EE64
:101F600073E080E090E00E947809809119039091DD
:101F70001A030E94EE056CEC8091190390911A03EC
:101F80000E946A086EEB8091190390911A030E94D7
:101F90006A088091190390911A030E94AE05182FC8
:101FA0008091190390911A030E94AE051FA61EA6E8
:101FB00019AA18AA1BAA1AAA612F70E0782B072E5B
:101FC000000C880B990B0E94E11220E030E040E801
:101FD0005DE30E941C138E010F5F1F4F22E044E05F
:101FE0000E948410BC01CE018E960E9419046BEFF2
:101FF00071E0CE0182960E944F04BE01625D7F4F68
:10200000CE0182960E940604BC01CE0188960E94F1
:102010003504BE01665C7F4FC8010E943504BE01D5
:10202000685D7F4FC8010E94B50AC8010E94300454
:10203000CE0188960E943004CE0182960E94300420
:10204000CE018E960E94300488AD99AD892B09F49B
:1020500006CF61E172E08CA99DA90E9437164C0160
:10206000892B09F0FCCEBE01665C7F4FCE01019644
:102070000E943504CE0101960E942608182FCE0139
:1020800001960E943004112309F4E9CEF7018491EE
:10209000F6010491F5011491112399F081110E9428
:1020A000E408E12FF0E0EE0FFF1FE058FE4FA5918E
:1020B000B4918C91082391E080E009F490E0892E9E
:1020C000982EB401F1E06F2789E00E940D0969E0C4
:1020D00072E0CE0182960E944F04BE01665C7F4F83
:1020E000CE0101960E943504BE016E5D7F4FCE0188
:1020F00001960E94B50ACE0101960E943004CE01DD
:1021000082960E943004ABCEEF920F931F93CF9331
:10211000DF93E80147FD02C034E001C034E1042E42
:10212000000C550B57FF03C0519541955109E32E03
:10213000022F242FAE010E94A410CE01DF91CF9177
:102140001F910F91EF900895A9E0B0E0EAEAF0E165
:102150000C94E3136A01122FB02E2BE3201720F00A
:10216000FF24F394F00E02C02CE3F22E0F2D27E093
:10217000AE014F5F5F4F0E94FE11BC014981842F69
:102180008970813031F0E1FC06C0E0FE06C090E2CB
:1021900005C09DE203C09BE201C090E05E2D50713E
:1021A00043FF3CC0911102C083E001C084E081176D
:1021B00018F4212F281B01C020E051110BC0F6019B
:1021C000822F30E2882319F031938150FBCFC20E69
:1021D000D11C20E0992329F0D6019C93F601319679
:1021E0006F01C6010396E2FE0AC03EE4D6013C93AD
:1021F00041E411964C93119712963C9306C03EE62B
:10220000F601308341E641833283FC01322F40E204
:10221000332309F442C041933150FACF42FF44C006
:10222000911102C083E001C084E0811718F4212FCE
:10223000281B01C020E051110BC0F601822F30E2B3
:10224000882319F031938150FBCFC20ED11C20E0BE
:10225000992329F0D6019C93F60131966F01C601AE
:102260000396E2FE0BC039E4D6013C933EE411969E
:102270003C93119736E412963C9307C039E6F60179
:1022800030833EE6318336E63283FC01322F40E272
:10229000332319F041933150FBCFFC01E20FF11DC4
:1022A00010828EEF9FEFA6C021E030E0911102C0B6
:1022B00020E030E0161617061CF4FB01319602C030
:1022C000E1E0F0E02E0F3F1FBB2021F0EB2DF0E00E
:1022D000319602C0E0E0F0E02E0F3F1FE12FF0E06A
:1022E0002E173F071CF4121B212F01C020E08E2D5A
:1022F000887159F4F601822F30E2882319F0319366
:102300008150FBCFC20ED11C20E0992329F0D601C9
:102310009C93F60131966F0151110BC0F601822F8B
:1023200090E3882319F091938150FBCFC20ED11C0A
:1023300020E00F2D060F9A81342F307144FF03C027
:10234000913309F40150101624F4093018F008E014
:1023500001C001E0AB0177FF02C040E050E0FB01AB
:10236000E41BF50BA1E0B0E0AC0FBD1FEA0FFB1FB3
:102370008EE2A82E4B01801A91080B2D10E01195CA
:10238000019511094F3FBFEF5B0721F4D601AC92D5
:1023900011966D01641775072CF08416950614F4D8
:1023A000818101C080E3415051093196D6011196D7
:1023B0007D014017510724F0D6018C936701E2CFCD
:1023C0006417750739F4963320F4953319F43111F5
:1023D00001C081E3F6018083F701822F90E2882318
:1023E00019F091938150FBCFF701E20FF11D10829C
:1023F00080E090E02996ECE00C94FF13283008F080
:1024000027E03327DA01990F311D87FD916000968F
:102410006105710539F432602E5F3D9330E32A95F2
:10242000E1F708959F3F30F080387105610509F0AC
:102430003C5F3C5F3D93913008F08068911DDF93D5
:10244000CF931F930F93FF92EF92192F987F96953A
:10245000E92F96959695E90FFF27EE53FF4F9927A1
:102460003327EE24FF24A701E70105900894079481
:1024700028F4360FE71EF81E491F511D660F771FFF
:10248000881F991F0694A1F70590079428F4E70E7A
:10249000F81E491F561FC11D770F881F991F661F01
:1024A0000694A1F70590079428F4F80E491F561FCB
:1024B000C71FD11D880F991F661F771F0694A1F7AC
:1024C0000590079420F4490F561FC71FD81F990F76
:1024D000661F771F881F0694A9F7849110951770BF
:1024E00041F0D695C79557954795F794E7941A9577
:1024F000C1F7E8E6F0E06894159015913591659183
:10250000959105907FE27395E118F10A430B560B04
:10251000C90BD009C0F7E10CF11E431F561FC91F9C
:10252000D01D7EF4703311F48A95E6CFE894015003
:1025300030F0080F0AF40027021708F4202F239523
:10254000022F7A3328F079E37D932A95E9F710C0BA
:102550007D932A9589F606949795679537951795F3
:102560001794E118F10A430B560BC90BD00998F0E8
:1025700023957E9173957A3308F070E37C93201352
:10258000B8F77E9170617D9330F0839571E37D9310
:1025900070E32A95E1F71124EF90FF900F911F91BE
:1025A000CF91DF91992787FD9095089591110C9413
:1025B0008913803219F089508550C8F70895E8943E
:1025C00009C097FB3EF490958095709561957F4F7B
:1025D0008F4F9F4F9923A9F0F92F96E9BB27939529
:1025E000F695879577956795B795F111F8CFFAF439
:1025F000BB0F11F460FF1BC06F5F7F4F8F4F9F4F6A
:1026000016C0882311F096E911C0772321F09EE8C7
:10261000872F762F05C0662371F096E8862F70E02D
:1026200060E02AF09A95660F771F881FDAF7880F07
:102630009695879597F908950E942F130C94A313EC
:102640000E94951338F00E949C1320F0952311F0FE
:102650000C948C130C94921311240C94D7130E9495
:10266000B41370F3959FC1F3950F50E0551F629F0F
:10267000F001729FBB27F00DB11D639FAA27F00DDB
:10268000B11DAA1F649F6627B00DA11D661F829F02
:102690002227B00DA11D621F739FB00DA11D621FE7
:1026A000839FA00D611D221F749F3327A00D611D04
:1026B000231F849F600D211D822F762F6A2F1124E6
:1026C0009F5750409AF0F1F088234AF0EE0FFF1F19
:1026D000BB1F661F771F881F91505040A9F79E3F70
:1026E000510580F00C948C130C94D7135F3FE4F3E6
:1026F000983ED4F3869577956795B795F795E795C6
:102700009F5FC1F7FE2B880F911D9695879597F9CE
:10271000089599278827089597F99F6780E870E0C2
:1027200060E008959FEF80EC089500240A94161647
:10273000170618060906089500240A9412161306AF
:10274000140605060895092E0394000C11F488233D
:1027500052F0BB0F40F4BF2B11F460FF04C06F5F59
:102760007F4F8F4F9F4F089557FD9058440F551F2F
:1027700059F05F3F71F04795880F97FB991F61F003
:102780009F3F79F087950895121613061406551F7A
:10279000F2CF4695F1DF08C0161617061806991FE6
:1027A000F1CF86957105610508940895E894BB27DB
:1027B00066277727CB0197F908952F923F924F9282
:1027C0005F926F927F928F929F92AF92BF92CF92C1
:1027D000DF92EF92FF920F931F93CF93DF93CDB7CA
:1027E000DEB7CA1BDB0B0FB6F894DEBF0FBECDBF42
:1027F00009942A88398848885F846E847D848C8413
:102800009B84AA84B984C884DF80EE80FD800C811B
:102810001B81AA81B981CE0FD11D0FB6F894DEBFFE
:102820000FBECDBFED01089597FB072E16F400945F
:1028300007D077FD09D00E94281407FC05D03EF48C
:10284000909581959F4F0895709561957F4F08955C
:10285000AA1BBB1B51E107C0AA1FBB1FA617B707C6
:1028600010F0A61BB70B881F991F5A95A9F78095E2
:102870009095BC01CD010895EE0FFF1F0590F491D6
:10288000E02D09940F931F93CF93DF93823091052E
:1028900010F482E090E0E0913603F091370320E0FD
:1028A00030E0A0E0B0E0309719F140815181028121
:1028B000138148175907C8F08417950769F41097D2
:1028C00031F012960C93129713961C9327C0009325
:1028D00036031093370322C02115310519F0421732
:1028E000530718F49A01BD01EF01DF01F801DBCFB6
:1028F00021153105F9F0281B390B2430310580F4FE
:102900008A819B816115710521F0FB01938382838C
:1029100004C09093370380933603FE01329644C07F
:10292000FE01E20FF31F8193919322503109398305
:1029300028833AC02091340330913503232B41F48E
:102940002091020130910301309335032093340329
:1029500020910001309101012115310541F42DB77D
:102960003EB74091040150910501241B350BE091C5
:102970003403F0913503E217F307A0F42E1B3F0B4D
:102980002817390778F0AC014E5F5F4F24173507E1
:1029900048F04E0F5F1F50933503409334038193EB
:1029A000919302C0E0E0F0E0CF01DF91CF911F9161
:1029B0000F910895CF93DF93009709F481C0FC0134
:1029C000329713821282A0913603B0913703109789
:1029D00081F420813181820F931F20913403309143
:1029E00035032817390751F5F0933503E093340385
:1029F00067C0ED0120E030E0CE17DF0740F44A81E8
:102A00005B819E0141155105F1F0EA01F5CFD383B9
:102A1000C28340815181840F951FC817D90759F48B
:102A200088819981840F951F0296918380838A8182
:102A30009B81938382832115310529F4F093370319
:102A4000E09336033DC0E901FB83EA834991599144
:102A5000C40FD51FEC17FD0761F480819181840FAD
:102A6000951F0296E90199838883828193819B83D4
:102A70008A83E0E0F0E012968D919C911397009785
:102A800019F0FD01DC01F7CF8D919C9111979D010B
:102A90002E5F3F4F820F931F2091340330913503F7
:102AA0002817390769F4309729F4109237031092E8
:102AB000360302C013821282B0933503A09334030D
:102AC000DF91CF910895A0E0B0E0E9E6F5E10C9444
:102AD000E113EC01009721F4CB010E944214B4C031
:102AE000FC01E60FF71F9C0122503109E217F307A2
:102AF00008F4A8C0D9010D911C911197061717076A
:102B0000B0F00530110508F49BC0C8010497861782
:102B1000970708F495C002501109061B170B019383
:102B200011936D937C93CF010E94DA1489C05B01ED
:102B3000A01AB10A4C01800E911EA0913603B091EB
:102B40003703612C712CE12CF12C109709F446C04D
:102B50008D919C911197A815B905B1F56C0142E0D2
:102B6000C40ED11CCA14DB0478F14C018A189B08EE
:102B7000640142E0C40ED11C1296BC9012971396C9
:102B8000AC91B5E0CB16D10440F0B282A383918220
:102B90008082D9016D937C9309C00E5F1F4F800F17
:102BA000911FF90191838083EB2DFA2FE114F10439
:102BB00031F0D7011396FC93EE93129741C0F09336
:102BC0003703E09336033CC06816790608F43C01ED
:102BD0007D0112960D90BC91A02DB7CF809134034A
:102BE0009091350388169906E1F466167706C8F4C5
:102BF0008091000190910101009741F48DB79EB73B
:102C00004091040150910501841B950BE817F907C9
:102C1000C8F4F0933503E0933403F90171836083C2
:102C20000FC0CB010E9442147C01009759F0A8010B
:102C3000BE010E942E16CE010E94DA14C70104C004
:102C4000CE0102C080E090E0CDB7DEB7EEE00C949C
:102C5000FD1381E090E0F8940C946F16FB01DC0109
:102C600002C001900D9241505040D8F70895FB01E9
:102C7000DC018D91019080190110D9F3990B089511
:102C8000FB01DC0101900D920020E1F70895FB01AA
:102C9000DC014150504030F08D910190801919F4C1
:102CA0000020B9F7881B990B0895FB01519155231A
:102CB000A9F0BF01DC014D9145174111E1F759F42D
:102CC000CD010190002049F04D9140154111C9F30B
:102CD000FB014111EFCF81E090E00197089510E0F2
:102CE000CFEDD0E004C0FE010E943C142196C03E0E
:082CF000D107C9F7F894FFCFEA
:102CF800000038038000000000009E010B01350130
:102D0800EB01660144015801000000002F020B018D
:102D1800B80233057F029702170200000000BB02C9
:102D2800BB0200000000BC02B0060D0A0042796533
:102D380020627965002B434945563A0041542B439C
:102D48004D47443D34002B37393530333432323631
:102D58003636002B3739323032393739353431008D
:102D68000D0041542B434D47533D22005365747564
:102D780070696E672E2E2E0041542B434D47463DF9
:102D8800313B2657004F4B0047534D207265616415
:102D98007900526561647920746F2073746172746C
:102DA800005374617274696E6720646F20666F7275
:102DB800206561636800446F2063616C6C626163C5
:102DC8006B20666F7220002B370050726573736535
:102DD8006420737461727448656174006765745423
:102DE800656D70657261747572650054656D7065A6
:102DF8007261747572653A20005072657373656408
:102E08002073746F70486561740043757272656EE3
:102E18007420726573706F6E73653A20002B434D92
:022E28000000A8
:00000001FF
