:100000000C94E0000C9408010C9408010C945F0619
:100010000C945F060C945F060C9408010C94080184
:100020000C9408010C9408010C9408010C9408012C
:100030000C9408010C9408010C9408010C9408011C
:100040000C94FF030C9408010C942D060C940706E5
:100050000C9408010C9408010C9408010C940801FC
:100060000C9408010C94080100407A10F35A00A087
:10007000724E18090010A5D4E80000E87648170071
:1000800000E40B54020000CA9A3B000000E1F505B1
:10009000000080969800000040420F000000A086FB
:1000A00001000000102700000000E803000000002D
:1000B0006400000000000A000000000001000000D1
:1000C00000002C76D888DC674F0823DFC1DFAE59EB
:1000D000E1B1B796E5E3E453C63AE651997696E87E
:1000E000E6C28426EB898C9B62ED407C6FFCEFBC02
:1000F0009C9F40F2BAA56FA5F490055A2AF75C932D
:100100006B6CF9676DC11BFCE0E40D47FEF520E662
:10011000B500D0ED902E0300943577050080841E45
:10012000080000204E0A000000C80C333333330FA0
:10013000986E12831141EF8D2114893BE65516CF3D
:10014000FEE6DB18D1844B381BF77C1D901DA4BB49
:10015000E424203284725E228100C9F124ECA1E5FE
:100160003D2700000000240027002A0000000008AE
:10017000000201000003040700000000000000006E
:1001800000000000250028002B00000000002300D4
:1001900026002900040404040404040402020202E8
:1001A000020203030303030301020408102040803A
:1001B0000102040810200102040810206C0D7A0BC3
:1001C00011241FBECFEFD8E0DEBFCDBF22E0AEEBE3
:1001D000B1E001C01D92A83BB207E1F711E0A0E039
:1001E000B1E0EEEBF8E202C005900D92AE3BB10734
:1001F000D9F710E0CFEDD0E004C02197FE010E94B6
:100200000F12CE3DD107C9F70E94880B0C945214EF
:100210000C9400002FB7F8946091030270910402CF
:1002200080910502909106022FBF089508950F93C3
:100230001F93CF93DF93EC010E940A0168877987AF
:100240008A879B87E881F9810284F385E02DCE01BE
:10025000099597FF17C00E940A01088519852A850C
:100260003B85DC01CB01801B910BA20BB30B0C81F6
:100270001D812E813F8180179107A207B30710F3DC
:100280008FEF9FEFDF91CF911F910F910895CF9244
:10029000DF92EF92FF920F931F93CF93DF936C0146
:1002A0007A018B01C0E0D0E0CE15DF0589F0D801DE
:1002B0006D918D01D601ED91FC910190F081E02DC1
:1002C000C6010995892B11F47E0102C02196ECCF5D
:1002D000C701DF91CF911F910F91FF90EF90DF90B9
:1002E000CF9008952091000230910102281739071C
:1002F00071F49091FF018091FE01981741F0E09117
:10030000FF01F0E0E254FE4F808190E008958FEF0E
:100310009FEF089508951F93CF93DF93DC015C96C0
:100320002D913C915D972115310539F481E090E0E4
:1003300013969C938E9312973DC05196ED91FC912C
:10034000529750969C915097892F80951FB75E9633
:100350004C915E9741FB772770F941FD6095F894C9
:100360004081772311F0492B01C048234083E901E4
:100370002197F1F748E0508160FF02C0592B01C07E
:1003800058235083E9012197F1F76695415099F779
:10039000772321F090818923808303C08081982B6B
:1003A00090831FBF5C968D919C915D970197F1F7AB
:1003B00021E030E0C901DF91CF911F910895209194
:1003C0000002309101022817390771F48091FE0173
:1003D0002091FF0190E0805C9F4F821B910960E4B7
:1003E00070E00E94E711089580E090E00895209168
:1003F00000023091010228173907B9F49091FF01EA
:100400008091FE01981789F0E091FF01F0E0E2543D
:10041000FE4F80812091FF0130E02F5F3F4F2F730F
:1004200033272093FF0190E008958FEF9FEF089509
:10043000089580E090E00895CF92DF92EF92FF92CE
:100440000F931F93CF93DF93DC0148E050E080E0EF
:1004500031E067E070E093E2C92ED12C0FEC10E0A0
:100460009C911196ED91FC911297F8942181292B82
:100470002183F280292F2095F222F282EB0121972D
:10048000F1F7F1802F212183E6012197F1F72081F7
:100490007894F8013197F1F7922309F0832B330F09
:1004A00041505109E9F6DF91CF911F910F91FF90D3
:1004B000EF90DF90CF900895FC0190810180F28150
:1004C000E02DF8948181292F2095822381837894CF
:1004D0008DE743E050E0815021F1DA011197F1F707
:1004E00030813923C1F3F894828182238283818110
:1004F000892B81837894ABE7B7E01197F1F7F894F3
:10050000818128232183A3E1B1E01197F1F7808154
:10051000982381E009F080E07894E3E6F6E03197F3
:10052000F1F7089508950895CF93DF93DC011696AF
:10053000ED91FC911797138E128E118E108E178AE3
:10054000168A8DE991E0958F848F8485863108F035
:100550004DC02DEB30E0378B268B2BE931E0318F0E
:10056000208F2CE231E0338F228F90916800883009
:1005700050F021E08E3008F420E081E001C0880FC7
:100580002A95EAF701C084E0892B8093680094855E
:10059000983038F09E3040F0963148F020E030E05E
:1005A00008C02DE630E005C02BE630E002C02CE6A6
:1005B00030E0348B238B983030F481E001C0880F19
:1005C0009A95EAF70EC0292F30E09E3018F4285093
:1005D000310902C02E50310981E001C0880F2A95EF
:1005E000EAF7858B848D958D0197F1F7828D938D38
:1005F000892B21F1A0910002B0910102AE17BF0733
:10060000E9F0109751F05396CD91DC915497988171
:1006100055968C91809589238883868D8E7F868FD1
:100620001092FE011092FF01F0930102E09300028C
:10063000A389B4899C918589892B8C93DF91CF9173
:1006400008950E940C140F931F93CF93DF93EC0136
:10065000E881F981DB0114964D915C9115976D91BC
:100660007C910280F381E02D09958C01E881F9816C
:100670000280F381E02D42E050E06AE371E0CE01B8
:100680000995800F911FDF91CF911F910F910895D0
:10069000CF93DF93EC0188819981009711F00E943C
:1006A000AA12198218821D821C821B821A82DF9173
:1006B000CF9108950F931F93CF93DF93EC0188811F
:1006C0009981009729F02A813B812617370788F402
:1006D0008B016F5F7F4F0E944213009761F09983F7
:1006E00088831B830A832C813D81232B11F4FC0119
:1006F000108281E001C080E0DF91CF911F910F91C6
:100700000895EF92FF920F931F93CF93DF93FC0115
:10071000248135816115710511F480E019C04115FE
:100720005105A9F07B01EC018A01020F131FB801EA
:100730000E945A03882389F3288139818C819D8105
:10074000B701820F931F0E9423141D830C8381E045
:10075000DF91CF911F910F91FF90EF900895EF924D
:10076000FF920F931F93CF93DF93EC017B018A01DC
:10077000BA010E945A03811104C0CE010E944803AD
:1007800007C01D830C83B701888199810E942314BF
:10079000CE01DF91CF911F910F91FF90EF900895BF
:1007A0008BE092E00E94970821E0892B09F420E079
:1007B000822F08953FB7F894809107029091080224
:1007C000A0910902B0910A0226B5A89B05C02F3F4F
:1007D00019F00196A11DB11D3FBFBA2FA92F982F67
:1007E0008827820F911DA11DB11DBC01CD0142E0E2
:1007F000660F771F881F991F4A95D1F708951F929A
:100800000F920FB60F9211242F933F938F939F93C4
:10081000AF93BF938091030290910402A0910502CF
:10082000B09106023091020223E0230F2D3720F40D
:100830000196A11DB11D05C026E8230F0296A11D3A
:10084000B11D209302028093030290930402A093AF
:100850000502B09306028091070290910802A091D0
:100860000902B0910A020196A11DB11D80930702F1
:1008700090930802A0930902B0930A02BF91AF912E
:100880009F918F913F912F910F900FBE0F901F90CE
:100890001895AF92BF92CF92DF92EF92FF920F9393
:1008A0001F93CF93DF93DC01CD90DC901197C1149F
:1008B000D10409F442C01496CD91DC91159720978C
:1008C000E1F18C0156017501BFEFAB1ABB0AF701CC
:1008D0008081082E000C990B0E94A910892B99F792
:1008E0002197CC0DDD1D8881082E000C990B0E94EC
:1008F000A910892B91F4AE014F5F5F4F4E195F092C
:10090000D80115965C934E931497CE14DF0450F4DF
:10091000B701C6010E94111405C0CE15DF0558F3BA
:100920002197E1CFD801ED91FC91119714968D910B
:100930009C911597E80FF91F1082DF91CF911F91BD
:100940000F91FF90EF90DF90CF90BF90AF90089500
:10095000AF92BF92CF92DF92EF92FF920F931F93CD
:10096000CF93DF937B018A01FB01448155814115BF
:10097000510561F1FC01248135812115310531F1E9
:100980002417350718F10217130718F089010150D1
:100990001109FC01A080B180C501DFEFCFEF650137
:1009A000C00ED11EC816D906A0F0F7016081718172
:1009B0000E943814009769F09C012A193B0902171C
:1009C000130710F0D22FC32F0196ECCF8FEF9FEFBC
:1009D00002C08D2F9C2FDF91CF911F910F91FF901F
:1009E000EF90DF90CF90BF90AF900895FB014481CE
:1009F0005581FC01248135812417350778F08081E9
:100A00009181009759F0FB01608171816115710539
:100A100029F00E942A1421E0892B09F020E0822F7E
:100A20000895CF93DF93EC016115710561F0FB012F
:100A300001900020E9F73197AF01461B570B0E9448
:100A40008103811103C0CE010E944803CE01DF91D2
:100A5000CF910895CF93DF93EC01FB014481558141
:100A6000608171810E948103811103C0CE010E94C7
:100A70004803CE01DF91CF910895CF93DF93EC012E
:100A80006115710559F0FB0101900020E9F73197DC
:100A9000AF01461B570B0E94AF0302C00E944803E0
:100AA000CE01DF91CF9108950F931F93CF93DF93E2
:100AB0008C01EB01FC01808191810097B1F068818C
:100AC00079816115710579F0428153812C813D81D5
:100AD0004217530740F00E9423148C819D81F80136
:100AE0009583848313C00E94AA1288819981F8019A
:100AF000918380838A819B81938382838C819D8172
:100B000095838483198218821B821A821D821C821B
:100B1000DF91CF911F910F910895FC018081918108
:100B20000C94AA12FB01DC0111961C921E921396E2
:100B30001C921E92129715961C921E92149786175D
:100B4000970749F0608171816115710521F0448139
:100B500055810C94AF030895FC0111821082138219
:100B60001282158214826115710551F0FB0101900A
:100B70000020E9F73197AF01461B570B0C94AF03E8
:100B80000895BF92CF92DF92EF92FF920F931F933F
:100B9000CF93DF937C016B018A01E90124173507AC
:100BA00020F4812F8901C42FD82F6CE371E0C70195
:100BB0000E94AC05D60114968D919C91159708174B
:100BC0001907D0F48C179D0708F4EC01D601ED91BC
:100BD000FC911197EC0FFD1FB08010824D915C913C
:100BE000BA01600F711FC7010E943D05D601ED914A
:100BF000FC91EC0FFD1FB082C701DF91CF911F91D7
:100C00000F91FF90EF90DF90CF90BF9008951F92CB
:100C10000F920FB60F9211242F933F934F935F9330
:100C20006F937F938F939F93AF93BF93EF93FF93B4
:100C30008BE092E00E942E0AFF91EF91BF91AF915D
:100C40009F918F917F916F915F914F913F912F91E4
:100C50000F900FBE0F901F9018951F920F920FB616
:100C60000F9211242F938F939F93EF93FF93E09113
:100C70001B02F0911C028081E0912102F09122027E
:100C800082FD12C09081809124028F5F8F7320912A
:100C90002502821751F0E0912402F0E0E55FFD4F5C
:100CA000958F8093240201C08081FF91EF919F91E5
:100CB0008F912F910F900FBE0F901F9018951F923C
:100CC0000F920FB60F9211242F933F934F935F9380
:100CD0006F937F938F939F93AF93BF93EF93FF9304
:100CE000E0910002F0910102309709F451C0968D15
:100CF000A685B785858591FF04C09C91892329F439
:100D000047C09C91892309F043C0A389B4899C9171
:100D10008589809589238C93868997890197F1F736
:100D2000608D718DA685B785558538E020E0CB01B3
:100D30000197F1F7822F90E095958795282F4C9198
:100D4000452309F02068315091F7868D81FD20956B
:100D50008091FE0190E001968F7399273091FF01F9
:100D6000381749F0A091FE01B0E0A254BE4F2C9379
:100D70008093FE0103C0868D8160868F828D938D66
:100D80000197F1F7A389B4899C918589892B8C936C
:100D9000FF91EF91BF91AF919F918F917F916F9153
:100DA0005F914F913F912F910F900FBE0F901F9029
:100DB00018958F929F92AF92BF92EF92FF920F93EE
:100DC0001F93CF93DF93CDB7DEB728970FB6F89474
:100DD000DEBF0FBECDBF7C018B016CE371E00E94D2
:100DE000AC050E940A014B015C0120E1820E27E262
:100DF000921EA11CB11CD80116968D919C9117973B
:100E0000DC01ED91FC910084F185E02D0995892BA1
:100E100039F40E940A01681579058A059B0558F383
:100E2000D80116968D919C911797DC01ED91FC915C
:100E30000084F185E02D0995892B29F1F801A68020
:100E4000B7806CE371E08E010F5F1F4FC8010E94F5
:100E5000AC05C5010E94170197FD0BC08F83188652
:100E600041E050E0BE01695F7F4FC8010E948103ED
:100E7000F0CFE016F10621F0B801C7010E94540539
:100E8000C8010E948D05C70128960FB6F894DEBFF1
:100E90000FBECDBFDF91CF911F910F91FF90EF90CB
:100EA000BF90AF909F908F9008958F929F92AF9236
:100EB000BF92CF92DF92EF92FF920F931F93CF9347
:100EC000DF93CDB7DEB72C970FB6F894DEBF0FBE19
:100ED000CDBF8C017B016A016CE371E00E94AC051F
:100EE000B601F701868197810E942303B701CE01E5
:100EF00001967C010E94D9060E151F0521F0B7014D
:100F0000C8010E945405C7010E948D05B601C801A1
:100F10000E94F6048823B9F1F6018480958065E487
:100F200071E0C7010E94AC05F801A480B5808A1465
:100F30009B0478F4C080D18069817A81C601880DD4
:100F4000991D0E943814009721F0AC014C195D09DD
:100F500002C04FEF5FEF6E01F7E0CF0ED11C4E5F86
:100F60005F4F9501B801C6010E94C1050C151D0512
:100F700021F0B601C8010E945405C6010E948D05EA
:100F8000C7010E948D05C8012C960FB6F894DEBFEC
:100F90000FBECDBFDF91CF911F910F91FF90EF90CA
:100FA000DF90CF90BF90AF909F908F900895EF9279
:100FB000FF920F931F93CF93DF93CDB7DEB7689760
:100FC0000FB6F894DEBF0FBECDBF8C01DC011696C4
:100FD0008D919C911797DC01ED91FC910084F18536
:100FE000E02D0995892B09F464C0B801CE01439620
:100FF0000E94D906CE0143960E94490462EA71E03C
:10100000CE0101960E94AC05BE016F5F7F4FCE01FD
:1010100043960E94F604F82ECE0101960E948D059B
:10102000FF2009F442C06BEB71E0CE0101960E94F3
:10103000AC054F89588D8D819E81481B590BBE018F
:101040006F5F7F4FCE0143960E94A8047C01CE01C2
:1010500001960E948D052F89388DA7014F5F5F4F44
:10106000BE016D5E7F4FCE010D960E94C105CE017F
:101070000D960E94490469EA71E0CE0101960E9432
:10108000AC05AE014F5F5F4FB801CE0107960E94DD
:101090005507CE0107960E948D05CE0101960E944C
:1010A0008D05CE010D960E948D05CE0143960E94BE
:1010B0008D0568960FB6F894DEBF0FBECDBFDF91E9
:1010C000CF911F910F91FF90EF900895FC01538DE8
:1010D000448D252F30E0842F90E0821B930B541712
:1010E00010F0CF96089501970895FC01918D828D9F
:1010F000981761F0828DDF01A80FB11D5D968C916C
:10110000928D9F5F9F73928F90E008958FEF9FEF76
:101110000895FC01918D828D981731F0828DE80F32
:10112000F11D858D90E008958FEF9FEF0895FC01EC
:10113000918D228D892F90E0805C9F4F821B9109B9
:101140008F739927089580E090E0892B29F00E9401
:10115000D00381110C9400000895CF92DF92EF929A
:10116000FF920F931F93CF93DF93CDB7DEB76297B4
:101170000FB6F894DEBF0FBECDBF7C016CE371E00B
:10118000CE010D960E94AC056CE371E0C7010E9490
:10119000AC056CEA72E08E010F5F1F4FC8010E9420
:1011A000D906B801CE010D960E945405C8010E94CF
:1011B0008D05CE010D960E94490462EA71E0C801D6
:1011C0000E94AC05B801CE010D960E94F604D82EFF
:1011D000C8010E948D05DD2009F441C06BEB71E070
:1011E000C8010E94AC0549895A898D819E81481B9E
:1011F000590BB801CE010D960E94A8046C01C801DC
:101200000E948D0529893A89A6014F5F5F4FBE0173
:10121000635F7F4FC8010E94C105E016F10621F00F
:10122000B801C7010E945405C8010E948D05C7017D
:101230000E94490469EA71E0CE0107960E94AC055C
:10124000AE01495F5F4F6CEA72E0C8010E9455072A
:10125000C8010E948D05CE0107960E948D05CE0122
:101260000D960E948D05C70162960FB6F894DEBFF9
:101270000FBECDBFDF91CF911F910F91FF90EF90E7
:10128000DF90CF900895EF92FF920F931F93CF932B
:10129000DF93CDB7DEB768970FB6F894DEBF0FBE09
:1012A000CDBF7C018B0163EB71E0CE010D960E94F6
:1012B000AC05B701CE010D960E942A056BEB71E0DB
:1012C0000E941105BC01CE0107960E949205AE0155
:1012D000495F5F4F6CEA72E0CE0101960E945507AC
:1012E000CE0101960E948D05CE0107960E948D05C4
:1012F000CE010D960E948D051E861D86188A1F86BA
:101300001A8A198A8AE189831A82BE016F5F7F4F28
:10131000CE010D960E943D05B801CE0143960E9474
:1013200092056AE371E0CE0143960E941105BE0169
:10133000635F7F4F0E942A05BC01CE0107960E9481
:101340009205AE01495F5F4F6CEA72E0CE010196F3
:101350000E945507CE0101960E948D05CE01079689
:101360000E948D05CE0143960E948D05CE010D96FB
:101370000E948D0568960FB6F894DEBF0FBECDBFF4
:10138000DF91CF911F910F91FF90EF900895AF9251
:10139000BF92CF92DF92EF92FF920F931F93CF9362
:1013A000DF93DC0128E030E081E0AA24AA94B12C8C
:1013B0000FE010E043E2E42EF12C57EDC52ED12CC6
:1013C0009C911196ED91FC911297492F4095582FC1
:1013D000562381F0F8945281452342834181492B61
:1013E0004183E7012197F1F74281942B928378940E
:1013F000F6010FC0F8945281452342834181492B65
:101400004183E5012197F1F74281942B92837894EF
:10141000F8013197F1F7880F2150310989F6F894D6
:101420001196ED91FC91129791818C918095892371
:1014300081831196ED91FC91129792818C91809508
:10144000892382837894DF91CF911F910F91FF9030
:10145000EF90DF90CF90BF90AF900895FC01848D06
:10146000DF01A80FB11DA35ABF4F2C91848D90E0CE
:1014700001968F739927848FA689B7892C93A089A9
:10148000B1898C9180648C93938D848D981306C060
:101490000288F389E02D80818F7D80830895EF920B
:1014A000FF920F931F93CF93DF93EC0181E0888F1E
:1014B0009B8D8C8D981305C0E889F989808185FD05
:1014C00024C0F62E0B8D10E00F5F1F4F0F731127F6
:1014D000E02E8C8DE8120CC00FB607FCFACFE8891D
:1014E000F989808185FFF5CFCE010E942E0AF1CFC8
:1014F0008B8DFE01E80FF11DE35AFF4FF0820B8F39
:10150000EA89FB898081806207C0EE89FF89608358
:10151000E889F98980818064808381E090E0DF91AF
:10152000CF911F910F91FF90EF900895CF93DF938C
:10153000EC01888D8823C9F0EA89FB89808185FDCB
:1015400005C0A889B9898C9186FD0FC00FB607FC2C
:10155000F5CF808185FFF2CFA889B9898C9185FF6D
:10156000EDCFCE010E942E0AE7CFDF91CF910895F3
:1015700090E0FC01E459FE4F3491FC01E855FE4F28
:101580002491FC01EC56FE4FE491EE2309F43BC09C
:10159000332339F1333091F038F43130A9F032305F
:1015A00001F584B58F7D12C0373091F03830A1F04D
:1015B0003430B9F4809180008F7D03C08091800029
:1015C0008F77809380000DC084B58F7784BD09C06C
:1015D0008091B0008F7703C08091B0008F7D8093A1
:1015E000B000F0E0EE0FFF1FE058FE4FA591B49160
:1015F0008FB7F894EC91611103C020952E2301C0A0
:101600002E2B2C938FBF0895CF93DF9390E0FC0196
:10161000E855FE4F2491FC01EC56FE4F849188233F
:1016200061F190E0880F991FFC01EE59FE4FC591C2
:10163000D491FC01E058FE4FA591B491611109C00D
:101640009FB7F8948881209582238883EC912E237C
:101650000BC0623061F49FB7F8943881822F809577
:1016600083238883EC912E2B2C939FBF06C08FB7CA
:10167000F894E8812E2B28838FBFDF91CF910895B6
:101680008F929F92AF92BF92CF92DF92EF92FF9292
:101690006B017C010E94DA034B015C01C114D1048F
:1016A000E104F104F1F00E94DA03DC01CB018819B6
:1016B0009909AA09BB09883E9340A105B10570F3B9
:1016C00021E0C21AD108E108F10888EE880E83E013
:1016D000981EA11CB11CC114D104E104F10419F736
:1016E000DDCFFF90EF90DF90CF90BF90AF909F90B5
:1016F0008F90089586E391E09093AD028093AC02C1
:1017000047E050E06DE371E08BE092E00C9447011C
:10171000CF93DF93CDB7DEB7E9970FB6F894DEBF6E
:101720000FBECDBF789484B5826084BD84B58160DE
:1017300084BD85B5826085BD85B5816085BD80919C
:101740006E00816080936E00109281008091810014
:10175000826080938100809181008160809381000C
:10176000809180008160809380008091B1008460CE
:101770008093B1008091B00081608093B00080912F
:101780007A00846080937A0080917A0082608093EE
:101790007A0080917A00816080937A0080917A004B
:1017A000806880937A001092C1008EE090E00E94E1
:1017B00015127C011091A80260E0812F0E94040B99
:1017C000212F30E0F901E855FE4FE491D701EC9369
:1017D000F901EC56FE4FE491F0E0EE0FFF1FE657E3
:1017E000FE4F85919491F70192838183138615862C
:1017F00014863B96C70103961292E817F907E1F7A2
:10180000F092AB02E092AA028CEA92E00E9494026B
:1018100061E088E00E94040B6CE371E0CE018896E1
:101820000E94AC0567E471E0CE0101960E94AC0510
:10183000AE014F5F5F4F6CEA72E0CE0182960E946C
:101840005507BE016E5D7F4FCE0188960E945405FC
:10185000CE0182960E948D05CE0101960E948D05D3
:1018600064E571E0CE0101960E94AC058CA59DA5B2
:10187000892B71F008A519A569817A81C8010E9498
:101880003814009729F09C01201B310B890102C0FC
:101890000FEF1FEFCE0101960E948D0517FDC2CFFD
:1018A000CE0188960E948D0567E571E0CE01829693
:1018B0000E94AC0566E671E0CE0101960E94AC057F
:1018C000BE016E5D7F4FCE0101960E944309CE019D
:1018D00001960E948D05CE0182960E948D05809111
:1018E000B2029091B302DC01ED91FC910084F1858C
:1018F000E02D0995892B09F457C0CE01C4960E94AA
:10190000AD08BE016C5C7F4F8BE092E00E94230328
:10191000CE0101960E94AD08BE016F5F7F4F8BE044
:1019200092E00E942303CE0101960E948D0588ADAE
:1019300099AD892B89F163E771E08CA99DA90E947B
:101940001A14892B49F561E088E00E94B80A64EF17
:1019500071E080E090E00E94400B60E088E00E942F
:10196000B80A6DE771E0CE0182960E94AC0566E68A
:1019700071E0CE0101960E94AC05BE016E5D7F4F05
:10198000CE0101960E944309CE0101960E948D0569
:10199000CE0182960E948D0588AD99AD892B39F4D0
:1019A000CE01C4960E948D050E94A30898CF65E8D9
:1019B00071E08CA99DA90E941A14892B89F761E016
:1019C0008CE00E94B80A8091AA029091AB020E941A
:1019D0005C026CEC8091AA029091AB020E94C70954
:1019E00064E48091AA029091AB020E94C70968EE5C
:1019F00073E080E090E00E94400B8091AA029091F9
:101A0000AB020E945C026CEC8091AA029091AB0246
:101A10000E94C7096EEB8091AA029091AB020E94CE
:101A2000C7098091AA029091AB020E941C02182F54
:101A30008091AA029091AB020E941C021FA61EA6D2
:101A400019AA18AA1BAA1AAA612F70E0782B072ED0
:101A5000000C880B990B0E94B41020E030E040E8A5
:101A60005DE30E94EF108E010F5F1F4F22E044E004
:101A70000E94230EBC01CE018E960E943D0564E9B2
:101A800071E0CE0182960E94AC05BE01625D7F4F7F
:101A9000CE0182960E942A05BC01CE0188960E9442
:101AA000920566E671E0C8010E94AC05BE01685D62
:101AB0007F4FC8010E944309C8010E948D05CE01D5
:101AC00088960E948D05CE0182960E948D05CE01DA
:101AD0008E960E948D0564CFCF92DF92EF92FF9297
:101AE000CF93DF9310920E0210920D0298EEC92E42
:101AF00093E0D92EE12CF12CC0920F02D09210026B
:101B0000E0921102F09212028AE091E090930C02AE
:101B100080930B0285EC90E090931802809317025B
:101B200084EC90E090931A028093190280EC90E08C
:101B300090931C0280931B0281EC90E090931E0214
:101B400080931D0282EC90E09093200280931F020C
:101B500086EC90E09093220280932102109224025E
:101B600010922502109226021092270286E391E03D
:101B70009093AD028093AC028AE08093B0028BE038
:101B80008093B1028FE190E00E941512EC011B825C
:101B90001A82CC82DD82EE82FF8284E291E0998318
:101BA00088831F8A1E8A198E188E1B8E1A8E1D8E90
:101BB0001C8E6E8D6E7F6D7F6E8F6695617081E07D
:101BC00068278BE00E94B80A61E08BE00E94040B5A
:101BD000E3EBF1E0E491E88BEFE9F1E0E491F0E090
:101BE000EE0FFF1FE058FE4F859194919A8B898BE1
:101BF00060E08AE00E94040B8E8D81FD04C061E0EC
:101C00008AE00E94B80A8AE08C87E2EBF1E0E49176
:101C1000ED87EEE9F1E0E491F0E0EE0FFF1FE6570B
:101C2000FE4F859194919F878E87D093B302C09386
:101C3000B20286E08093A802DF91CF91FF90EF90EF
:101C4000DF90CF900895EF920F931F93CF93DF9380
:101C5000E80147FD02C034E001C034E1E42F440F45
:101C6000FF0BF7FF03C0F195E195F109E32E022F79
:101C70002E2FAE010E94430ECE01DF91CF911F9116
:101C80000F91EF9008954F925F926F927F929F9283
:101C9000AF92BF92CF92DF92EF92FF920F931F937A
:101CA000CF93DF93CDB7DEB729970FB6F894DEBF99
:101CB0000FBECDBF6A01122FB02E2BE3201720F0EC
:101CC000FF24F394F00E02C0BCE3FB2E0F2D27E09F
:101CD000AE014F5F5F4F0E94D10FAC018981982FF9
:101CE0009970913031F0E1FC06C0E0FE06C090E250
:101CF00005C09DE203C09BE201C090E0EE2DE071C3
:101D000083FF3CC0911102C083E001C084E08117D1
:101D100018F4212F281B01C020E0E1110BC0F601AF
:101D2000822F30E2882319F031938150FBCFC20E0D
:101D3000D11C20E0992329F0D6019C93F60131961D
:101D40006F01C6010396E2FE0AC03EE4D6013C9351
:101D500041E411964C93119712963C9306C03EE6CF
:101D6000F601308341E641833283FC01322F40E2A9
:101D7000332309F442C041933150FACF82FF44C06B
:101D8000911102C083E001C084E0811718F4212F73
:101D9000281B01C020E0E1110BC0F601822F30E2C8
:101DA000882319F031938150FBCFC20ED11C20E063
:101DB000992329F0D6019C93F60131966F01C60153
:101DC0000396E2FE0BC039E4D6013C933EE4119643
:101DD0003C93119736E412963C9307C039E6F6011E
:101DE00030833EE6318336E63283FC01322F40E217
:101DF000332319F041933150FBCFFC01E20FF11D69
:101E000010828EEF9FEFB7C0F1E0911101C0F0E0BA
:101E10006F2F70E01416150624F49A012F5F3F4FC0
:101E200002C021E030E0260F371FBB2029F06B2DC8
:101E300070E06F5F7F4F02C060E070E0260F371FD9
:101E4000612F70E0261737071CF4121B212F01C0E9
:101E500020E03E2D387159F4D601322F60E2332351
:101E600019F06D933150FBCFC20ED11C20E0FF233F
:101E700031F0D6019C93B6016F5F7F4F6B01E1118A
:101E80000BC0F601922F30E3992319F03193915052
:101E9000FBCFC20ED11C20E09F2D940F3A81782FEA
:101EA0007071A72E84FF03C0313309F491501916C5
:101EB00024F4993018F098E001C091E0E42F852FC8
:101EC00057FF02C0E0E080E06E2F782FE0E0F0E006
:101ED000AEE29A2E3A01691A71082A01461A570A87
:101EE0000B2D10E01195019511096F3F8FEF7807C9
:101EF00029F4D6019C92C60101966C01461757073A
:101F000084F0661677066CF47F01E40CF51CA1E002
:101F1000B0E0AC0FBD1FEA0EFB1ED7011196BC90BE
:101F200002C090E3B92E615071093196C601019645
:101F30007C016017710724F0D601BC926C01D5CFEB
:101F40006417750741F4363320F4353321F4A110BA
:101F500002C081E3B82EF601B082F701822F90E231
:101F6000882319F091938150FBCFF701E20FF11D07
:101F7000108280E090E029960FB6F894DEBF0FBE85
:101F8000CDBFDF91CF911F910F91FF90EF90DF9028
:101F9000CF90BF90AF909F907F906F905F904F9049
:101FA0000895283008F027E03327DA01990F311D12
:101FB00087FD916000966105710539F432602E5FEE
:101FC0003D9330E32A95E1F708959F3F30F0803844
:101FD0007105610509F03C5F3C5F3D93913008F06D
:101FE0008068911DDF93CF931F930F93FF92EF9221
:101FF000192F987F9695E92F96959695E90FFF27CB
:10200000EE53FF4F99273327EE24FF24A701E70162
:1020100005900894079428F4360FE71EF81E491F10
:10202000511D660F771F881F991F0694A1F7059011
:10203000079428F4E70EF81E491F561FC11D770F9D
:10204000881F991F661F0694A1F70590079428F42E
:10205000F80E491F561FC71FD11D880F991F661FF5
:10206000771F0694A1F70590079420F4490F561F97
:10207000C71FD81F990F661F771F881F0694A9F7DF
:1020800084911095177041F0D695C795579547954F
:10209000F794E7941A95C1F7E8E6F0E06894159094
:1020A000159135916591959105907FE27395E118B1
:1020B000F10A430B560BC90BD009C0F7E10CF11E16
:1020C000431F561FC91FD01D7EF4703311F48A952B
:1020D000E6CFE894015030F0080F0AF40027021709
:1020E00008F4202F2395022F7A3328F079E37D938B
:1020F0002A95E9F710C07D932A9589F6069497955D
:102100006795379517951794E118F10A430B560B0D
:10211000C90BD00998F023957E9173957A3308F016
:1021200070E37C932013B8F77E9170617D9330F05B
:10213000839571E37D9370E32A95E1F71124EF9085
:10214000FF900F911F91CF91DF91992787FD909577
:10215000089591110C945C11803219F089508550CA
:10216000C8F70895E89409C097FB3EF490958095D0
:10217000709561957F4F8F4F9F4F9923A9F0F92F4D
:1021800096E9BB279395F695879577956795B795CB
:10219000F111F8CFFAF4BB0F11F460FF1BC06F5FB1
:1021A0007F4F8F4F9F4F16C0882311F096E911C0C3
:1021B000772321F09EE8872F762F05C0662371F0E4
:1021C00096E8862F70E060E02AF09A95660F771FF8
:1021D000881FDAF7880F9695879597F908950E94DA
:1021E00002110C9476110E94681138F00E946F1150
:1021F00020F0952311F00C945F110C9465111124BB
:102200000C94AA110E94871170F3959FC1F3950F4A
:1022100050E0551F629FF001729FBB27F00DB11D6A
:10222000639FAA27F00DB11DAA1F649F6627B00DFA
:10223000A11D661F829F2227B00DA11D621F739FE3
:10224000B00DA11D621F839FA00D611D221F749FF1
:102250003327A00D611D231F849F600D211D822F38
:10226000762F6A2F11249F5750409AF0F1F088235F
:102270004AF0EE0FFF1FBB1F661F771F881F91508C
:102280005040A9F79E3F510580F00C945F110C94CB
:10229000AA115F3FE4F3983ED4F38695779567954E
:1022A000B795F795E7959F5FC1F7FE2B880F911DB6
:1022B0009695879597F9089599278827089597F90E
:1022C0009F6780E870E060E008959FEF80EC0895DC
:1022D00000240A9416161706180609060895002405
:1022E0000A9412161306140605060895092E03947F
:1022F000000C11F4882352F0BB0F40F4BF2B11F4F3
:1023000060FF04C06F5F7F4F8F4F9F4F089557FD51
:102310009058440F551F59F05F3F71F04795880F53
:1023200097FB991F61F09F3F79F0879508951216EA
:1023300013061406551FF2CF4695F1DF08C0161696
:1023400017061806991FF1CF869571056105089447
:102350000895E894BB2766277727CB0197F908955E
:102360002F923F924F925F926F927F928F929F92A5
:10237000AF92BF92CF92DF92EF92FF920F931F9393
:10238000CF93DF93CDB7DEB7CA1BDB0B0FB6F89444
:10239000DEBF0FBECDBF09942A88398848885F8484
:1023A0006E847D848C849B84AA84B984C884DF80F5
:1023B000EE80FD800C811B81AA81B981CE0FD11DD9
:1023C0000FB6F894DEBF0FBECDBFED01089597FBA9
:1023D000072E16F4009407D077FD09D00E94FB1158
:1023E00007FC05D03EF4909581959F4F0895709518
:1023F00061957F4F0895AA1BBB1B51E107C0AA1F1F
:10240000BB1FA617B70710F0A61BB70B881F991F95
:102410005A95A9F780959095BC01CD010895EE0FCE
:10242000FF1F0590F491E02D0994CF93DF93823044
:10243000910510F482E090E0E091B602F091B702CD
:1024400020E030E0C0E0D0E0309711F140815181D0
:1024500048175907C0F04817590761F482819381E2
:10246000209719F09B838A832BC09093B7028093A7
:10247000B60226C02115310519F04217530718F48A
:102480009A01BE01DF01EF010280F381E02DDCCF74
:102490002115310509F1281B390B2430310590F441
:1024A00012968D919C9113976115710521F0FB0196
:1024B0009383828304C09093B7028093B602FD0198
:1024C000329644C0FD01E20FF31F81939193225095
:1024D00031092D933C933AC02091B4023091B5025A
:1024E000232B41F420910201309103013093B50276
:1024F0002093B40220910001309101012115310592
:1025000041F42DB73EB74091040150910501241BC1
:10251000350BE091B402F091B502E217F307A0F495
:102520002E1B3F0B2817390778F0AC014E5F5F4F29
:102530002417350748F04E0F5F1F5093B5024093A4
:10254000B4028193919302C0E0E0F0E0CF01DF910B
:10255000CF9108950F931F93CF93DF93009709F4C2
:102560008CC0FC013297138212820091B602109146
:10257000B7020115110581F420813181820F931F6B
:102580002091B4023091B5022817390779F5F093FC
:10259000B502E093B40271C0D80140E050E0AE173C
:1025A000BF0750F412962D913C911397AD01211560
:1025B000310509F1D901F3CF9D01DA01338322837B
:1025C00060817181860F971F8217930769F4EC0170
:1025D00028813981260F371F2E5F3F4F318320839B
:1025E0008A819B8193838283452B29F4F093B702E0
:1025F000E093B60242C01396FC93EE931297ED015E
:10260000499159919E01240F351FE217F30771F488
:1026100080819181840F951F029611969C938E93D1
:102620008281938113969C938E931297E0E0F0E061
:10263000D80112968D919C911397009719F0F8018B
:102640008C01F6CF8D919C9198012E5F3F4F820FA8
:10265000931F2091B4023091B5022817390769F40D
:10266000309729F41092B7021092B60202C013827A
:1026700012821093B5020093B402DF91CF911F91A3
:102680000F910895A0E0B0E0E8E4F3E10C94B411F8
:10269000EC01009721F4CB010E941512B8C0FC0197
:1026A000E60FF71F9C0122503109E217F30708F4E7
:1026B000ACC0D9010D911C91119706171707B0F006
:1026C0000530110508F49FC0C801049786179707C5
:1026D00008F499C002501109061B170B01931193BE
:1026E0006D937C93CF010E94AA128DC05B01A01A4A
:1026F000B10A4C01800E911EA091B602B091B702B2
:1027000040E050E0E12CF12C109709F44AC0A815E4
:10271000B905D1F56D907C901197630182E0C80EE8
:10272000D11CCA14DB0480F1A3014A195B096A01B8
:1027300082E0C80ED11C1296BC9012971396AC91F1
:10274000B5E0CB16D10440F0B282A383518340831D
:10275000D9016D937C930AC00E5F1F4FC301800F98
:10276000911FF90191838083EB2DFA2FE114F1047D
:1027700031F0D7011396FC93EE93129744C0F09377
:10278000B702E093B6023FC08D919C911197481714
:10279000590708F4AC017D0112960D90BC91A02D53
:1027A000B3CF8091B4029091B50288159905E1F4F8
:1027B00046175707C8F480910001909101010097D6
:1027C00041F48DB79EB74091040150910501841BDF
:1027D000950BE817F907C8F4F093B502E093B4023B
:1027E000F901718360830FC0CB010E9415127C0137
:1027F000009759F0A801BE010E941114CE010E9459
:10280000AA12C70104C0CE0102C080E090E0CDB79B
:10281000DEB7EEE00C94D01181E090E0F8940C94D7
:102820005214FB01DC0102C001900D924150504056
:10283000D8F70895FB01DC018D91019080190110FA
:10284000D9F3990B0895FB01DC0101900D92002052
:10285000E1F70895FB01DC014150504030F08D91CB
:102860000190801919F40020B9F7881B990B08957D
:10287000FB0151915523A9F0BF01DC014D91451792
:102880004111E1F759F4CD010190002049F04D913B
:1028900040154111C9F3FB014111EFCF81E090E0F8
:1028A0000197089510E0CFEDD0E004C0FE010E9432
:0E28B0000F122196C03ED107C9F7F894FFCF52
:1028BE000000B8022000000000004F0A4701660821
:1028CE00960A970875088908000000009202930284
:1028DE00000000008B01470119028A01DF01F70198
:1028EE007201000000009402D7070D0A00427965BC
:1028FE0020627965000D0041542B434D47463D3112
:10290E003B2657004F4B00526561647920746F204F
:10291E007374617274002B3739323032393739356E
:10292E00343100737461727448656174005072655D
:10293E00737365640067657454656D706572617458
:10294E007572650054656D70657261747572653A65
:10295E0020002B434945563A0041542B434D4744E2
:0E296E003D340041542B434D47533D220000A1
:00000001FF
